:020000040800F2
:10000000E8060020A9010008D71100089711000890
:10001000D51100080B03000841160008000000007D
:10002000000000000000000000000000DB110008DC
:100030000D03000800000000D9110008DD110008C0
:10004000C3010008C3010008C3010008C301000880
:10005000C3010008C3010008C3010008C301000870
:10006000C3010008C3010008C3010008C301000860
:10007000C3010008C3010008C3010008C301000850
:10008000C3010008C3010008C3010008000000000C
:10009000000000000000000000000000C301000894
:1000A000C3010008C3010008C3010008C301000820
:1000B000C3010008C301000885120008C30100083D
:1000C000C3010008C3010008C3010008C301000800
:1000D000C301000809160008C30100080000000061
:1000E000C3010008C3010008C301000800000000AC
:1000F000000000000000000000000000C301000834
:1001000000000000C3010008C3010008C30100088B
:1001100000000000000000000000000000000000DF
:10012000C3010008C3010008C3010008C30100089F
:10013000C3010008000000000000000000000000F3
:10014000000000000000000000000000C3010008E3
:10015000C3010008C3010008C3010008C30100086F
:10016000C3010008C30100080000000000000000F7
:10017000000000000000000000000000000000007F
:1001800000000000C30100080000000000000000A3
:10019000C3010008DFF80CD000F07AF800480047EF
:1001A000811B0008E80600200648804706480047F3
:1001B000FEE7FEE7FEE7FEE7FEE7FEE7FEE7FEE717
:1001C000FEE7FEE775120008950100082DE9F05FD3
:1001D0000546002092469B468846064681464024B6
:1001E0001BE0284641464746224600F041F8534668
:1001F0005A46C01A914110D311461846224600F0C3
:1002000028F82D1A67EB01084F46224601200021ED
:1002100000F01FF817EB00094E41201EA4F1010465
:10022000DFDC484631462A464346BDE8F09FD2B25D
:1002300001E000F8012B491EFBD270470022F6E7CF
:1002400010B513460A4604461946FFF7F0FF20464C
:1002500010BD202A04DB203A00FA02F1002070478A
:100260009140C2F1200320FA03F3194390407047F4
:10027000202A04DB203A21FA02F00021704721FAFB
:1002800002F3D040C2F12002914008431946704762
:10029000064C074D06E0E06840F0010394E80700D3
:1002A00098471034AC42F6D3FFF778FFC42B000810
:1002B000E42B000870B58C1810F8015B15F00703EB
:1002C00001D110F8013B2A1106D110F8012B03E0EF
:1002D00010F8016B01F8016B5B1EF9D12B0705D4F7
:1002E0000023521E0DD401F8013BFAE710F8013B40
:1002F000CB1A921C03E013F8015B01F8015B521E5C
:10030000F9D5A142D8D3002070BDFEE770472DE992
:10031000F0410446876D00F057F9064694F8350021
:100320000025022806D08020606584F83450012022
:10033000BDE8F0812068016821F0160101602068A5
:10034000416921F080014161206C08B9A06C20B1A5
:100350002068016821F0080101602068016821F02F
:10036000010101600CE000F02FF9801B052807D97E
:1003700020206065032084F8350084F83450D7E7E6
:1003800020680068C007EED194F85C103F208840D8
:10039000B860012084F8350084F834500020C7E7A5
:1003A00090F83510022903D0802141650120704763
:1003B000052180F835100068016821F00101016015
:1003C0000020704770B5044600F0FEF80546601C3A
:1003D00002D004480078044400F0F6F8401BA04224
:1003E000FAD370BD000000202DE9F84FDFF8B8A166
:1003F000002201240AF1040B03254FF00F090BF131
:10040000040E00BF0B6804FA02F63340B34273D106
:100410000F7907F00307012F01D0022F16D187684B
:100420004FEA420805FA08FC27EA0C07D1F80CC08D
:100430000CFA08FC4CEA070CC0F808C04768B74340
:100440000E79C6F3001696403E4346600E79F64399
:10045000B6070DD0C768560005FA06FC27EA0C0758
:10046000D1F808C00CFA06FC4CEA070CC0F80CC026
:100470000E7906F00306022E10D1D60800EB86088E
:10048000D8F8206057074FEAD76C09FA0CF7BE433B
:100490000F6907FA0CF73743C8F8207006684FEA6F
:1004A000420C05FA0CF7BE430F7907F0030707FA71
:1004B0000CF7374307604E6816F4403F6DD03B4E53
:1004C000376847F480473760366822F0030706F440
:1004D00080460096364E07EB060CDCF80868970756
:1004E0003F0F09FA07F826EA0806DFF8C8804045FA
:1004F00003D14FF000081EE04FE0DFF8BC8040451C
:1005000002D14FF0010816E0DFF8B080404502D17B
:100510004FF002080FE0DFF8A880404502D14FF00D
:10052000030808E0DFF89C80404502D14FF0040842
:1005300001E04FF0070808FA07F848EA0608CCF887
:100540000888DAF800605746D1F804C09E435FEA95
:10055000CC3C00D51E433E60DBF800605F46D1F81E
:1005600004C09E435FEA8C3C00D51E433E60DEF82B
:1005700000607746D1F804C09E435FEACC2C00D5DA
:100580001E433E60084F0C373E68D1F804C09E43BE
:100590005FEA8C2C00D51E433E60521C102AFFF4EB
:1005A00031AFBDE8F88F0000003C01404438024004
:1005B00000300140000002400004024000080240F8
:1005C000000C0240001002400148806870470000A3
:1005D0000000002002488168027811448160704761
:1005E000000000200B4810B5016841F40071016063
:1005F000016841F480610160016841F4807101602B
:10060000052000F06FF8002000F006F800F024F854
:10061000002010BD003C024070B50D4D04464FF463
:100620007A712878B1FBF0F00A490968B1FBF0F063
:1006300000F018FB48B9102C07D200222146501EAA
:1006400000F030F800206C6070BD012070BD00002B
:10065000000000200C0000200A4808B5016841F4A1
:1006600080410160006800F4804000900548001F50
:10067000016841F080510160006800F080500090F6
:1006800008BD000044380240002809DB00F01F02CA
:10069000012191404009800000F1E020C0F80011E4
:1006A00070470000F0B40E4B1B680C46C3F30223E6
:1006B000C3F10705042D00D90425191D072901D20E
:1006C000002300E0DB1E012606FA05F1491E214049
:1006D00099409E40761E16403143F0BC00F0C2BFE8
:1006E0000CED00E0064900F0070208684FF6FF0332
:1006F000184040EA0220034A104308607047000097
:100700000CED00E00000FA052DE9F0470E4605006B
:1007100065D0DFF81481D8F80000F7B200F00700C8
:10072000B04207D288F80070D8F8000000F0070047
:10073000B04254D128683D4C810712D5400703D5FB
:10074000206840F4E05020602878000703D5206836
:1007500040F4604020602068A96820F0F000084361
:1007600020602878C0072DD03049686808390128F2
:1007700012D0022813D0032811D009688907002954
:100780002DDA216821F0030101432160FFF71CFFEE
:10079000814641F2883A0EE009688903EFE709686B
:1007A0008901ECE7FFF710FFA0EB0901514502D9E1
:1007B0000320BDE8F0872068696800F00C00B0EB0A
:1007C000810FEFD1D8F80010404601F00701B14287
:1007D00007D90770006800F00700B04201D001207F
:1007E000E7E72878400705D52068E96820F4E0505D
:1007F000084320602878000706D52068296920F47E
:10080000604040EAC100206000F038F82168084AE2
:10081000C1F30311515CC8400649086006480068EE
:10082000FFF7FAFE0020C4E7003C0240083802400F
:10083000182B00080C000020040000200448054983
:1008400000680968044AC1F38221515CC8407047BE
:100850000C00002008380240282B000804480549F5
:1008600000680968044AC1F34231515CC8407047CE
:100870000C00002008380240282B0008154810B54D
:10088000006810F00C02144813D01449042A0FD049
:10089000082A0ED10F4C241F2268236802F03F0261
:1008A0005B0207D52068C0F38810A0FB010106E0B9
:1008B000084610BD2168C1F38811A1FB0001002387
:1008C000FFF784FC2168C1F30141491C4900B0FBDA
:1008D000F1F010BD083802400024F40040787D019A
:1008E0002DE9F84F04006ED02078DFF84C93C00754
:1008F000A9F104054AD009F104000168C1F381019E
:10090000012908D00068C0F3810002280AD1D9F873
:100910000000400206D52868800337D560680028AB
:10092000E1D033E06068B0F5803F10D0B0F5A02F83
:10093000286810D020F480302860286820F48020B7
:1009400028606068A8B1FFF73FFE06460DE0286802
:1009500040F48030F4E740F480202860F7E700BFDF
:10096000FFF732FE801B642873D828688003F7D510
:100970000CE0FFF729FE064605E000BFFFF724FE66
:10098000801B6428F0D828688003F7D42078DFF82B
:10099000AC8280074FF0000A3ED5A748001D0168D1
:1009A00011F00C0F08D00068C0F3810002280BD1B1
:1009B000D9F80000400207D42868800716D5E068FF
:1009C000012800D112E033E1E068B8B10120C8F895
:1009D0000000FFF7F9FD064605E000BFFFF7F4FD54
:1009E000801B0228C0D828688007F7D528682169AD
:1009F00020F0F80040EAC10028600DE0C8F800A02F
:100A0000FFF7E2FD064604E0FFF7DEFD801B02284B
:100A10001FD828688007F7D42078000722D5864F92
:100A200087486169703771B101210160FFF7CCFD22
:100A3000064604E0FFF7C8FD801B022809D8386885
:100A40008007F7D50EE0C0F800A0FFF7BDFD064611
:100A500005E082E0FFF7B8FD801B02287DD83868EA
:100A60008007F7D42078400768D5DFF8CCB100279D
:100A70000BF13C0BDBF80000C0000BD4DBF80010DE
:100A800041F08051CBF80010DBF80000012700F0A6
:100A9000805000906B4E3068C00510D4306840F430
:100AA00080703060FFF790FD009005E0FFF78CFD4F
:100AB0000099401A022850D83068C005F6D55E4E1D
:100AC000A0686C3601280FD00528306810D020F0BF
:100AD00001003060306820F004003060A068B8B1D8
:100AE000FFF772FD00900FE0306840F00100F4E77E
:100AF00040F004003060F7E7FFF766FD0099411A07
:100B000041F28830814266D830688007F4D50EE023
:100B1000FFF75AFD009007E0FFF756FD0099411AD4
:100B200041F28830814256D830688007F4D42FB122
:100B3000DBF8001021F08051CBF80010A069C8B399
:100B40003D49091D0968C1F3810102294AD00228E3
:100B5000504607D0C8F8600000E03CE0FFF734FDE5
:100B600004463BE04746C8F86000FFF72DFD064607
:100B700005E000BFFFF728FD801B02282BD828685E
:100B80008001F7D4D4E907010843A16A2E4A490835
:100B900002EB0141626A41EA8211084394F82C1089
:100BA00040EA0161C9F8001001203866FFF70CFD2A
:100BB000044606E03EE000BFFFF706FD001B0228EA
:100BC00009D828688001F7D534E000BFFFF7FCFCA6
:100BD000001B022802D90320BDE8F88F2868800195
:100BE000F4D427E00128F7D0D9F80000E26900F436
:100BF000800191421CD1226A00F03F01914217D13D
:100C000047F6C071626A0140B1EB821F10D1A26A3F
:100C10004FF0FF3300F4403103EB5202B1EB024FCF
:100C200006D194F82C1000F07060B0EB016F01D089
:100C30000120D1E70020CFE70438024000004742FE
:100C4000800E4742007000400000FFFF4FF0E0219F
:100C50000428086903D020F004000861704740F0C0
:100C60000400FAE710B5401EB0F1807F01D30120E7
:100C700010BD4FF0E02460610F21601700F0F2FC1E
:100C80000020A06107202061002010BD10B50400E5
:100C900003D094F83D0010B107E0012010BD002002
:100CA00084F83C00204600F01FF8022084F83D0044
:100CB000211D206800F000FB012084F8460084F824
:100CC0003E0084F83F0084F8400084F8410084F836
:100CD000420084F8430084F8440084F8450084F816
:100CE0003D00002010BD000010B586B00446142160
:100CF0006846FFF7A3FA1249206888421ED11148BE
:100D00000021026842F004020260006800F0040062
:100D100005900C481038026842F002020260006838
:100D200000F002000590402000900220CDE9010172
:100D3000CDE9031069460448FFF756FB06B010BD25
:100D400000080040403802400004024090F83D1086
:100D5000012901D001207047022180F83D1001686F
:100D6000CA6842F00102CA6000680E4988420ED08B
:100D7000B0F1804F0BD00C49884208D00B49884213
:100D800005D00B49884202D00A49884204D18168C3
:100D900001F00701062903D0016841F0010101605B
:100DA000002070470000014000040040000800409F
:100DB000000C0040004001407047704710F83D1F94
:100DC0004078084370470000F8B501680446086899
:100DD000CA684B6910F00F0F4FF0000559D003F0AF
:100DE000010602F49077374365D0C10705D0D105DD
:100DF00003D5216C41F001012164410705D5D907D4
:100E000003D0216C41F002012164810705D5D90787
:100E100003D0216C41F004012164010707D502F0E1
:100E20002001314303D0216C41F008012164216C81
:100E300000293AD0800604D5900602D5204600F05D
:100E4000E0FA20684069216CC0F38010090700D4E3
:100E500060B3204600F0AEFA20684069400621D514
:100E60002068143050E8001F21F0400140E80012D3
:100E7000002AF5D1A06BA8B16C490165A06BFFF702
:100E80008FFA002811D0A06B016D01B0BDE8F040D1
:100E9000084783060FD593060DD52046BDE8F840D8
:100EA00000F0AFBA2046FFF788FFF8BD2046FFF7F5
:100EB00084FF2564F8BD266B2023012E79D1C60658
:100EC00077D5D60675D50868486800904869400609
:100ED00040D5A16B086840680004000CEAD0A28DE0
:100EE0008242E7D9E085C869B0F5807F2DD02068BF
:100EF0000C3050E8001F21F4807140E80012002AF5
:100F0000F5D12068143050E8001F21F0010140E8BD
:100F10000012002AF5D12068143050E8001F21F09B
:100F2000400140E80012002AF5D184F83E302563E4
:100F300020680C3050E8001F21F0100140E800123A
:100F4000002AF5D1A06BFFF7E2F9A08DE18D401AE0
:100F500081B229E0A08DE18D401A81B2E08D002898
:100F6000A8D00029A6D020680C3050E8002F22F429
:100F7000907240E80026002EF5D12068143050E829
:100F8000002F22F0010240E80026002EF5D184F85F
:100F90003E30256320680C3050E8002F22F010020C
:100FA00040E80023002BF5D12046FFF705FFF8BDF0
:100FB000FFE705062BD5150629D594F83D00212815
:100FC000F5D1A068B0F5805F01D12069B0B1206A89
:100FD000411C2162216800784860E08C401E0004BA
:100FE000000CE084E3D12068C16821F08001C16079
:100FF0002068C16841F04001C160D8E7206A0088DC
:10100000C0F308004860206A801C2062E5E74006C3
:10101000CDD55006CBD5CA68204622F04002CA6022
:1010200084F83D3000F0B6F8C1E70000A5130008D1
:1010300070B5040004D094F83D00002510B106E01E
:10104000012070BD84F83C50204600F023F8242095
:1010500084F83D002068C16821F40051C160204639
:1010600000F030FA2068016921F4904101612068A4
:10107000416921F02A0141612068C16841F40051B1
:10108000C1602564202084F83D0084F83E000020E3
:1010900070BD000010B586B0044614216846FFF705
:1010A000CDF818492068884229D1174800210268E4
:1010B00042F010020260006800F010000590124833
:1010C0001438026842F001020260006800F001007A
:1010D00005904FF4C06000900220CDE9010103208B
:1010E00003900720049069460848FFF77DF9002225
:1010F00011462520FFF7D6FA2520FFF7C5FA06B0DE
:1011000010BD0000001001404438024000000240C1
:1011100090F83E30202B0ED159B152B190F83C30AE
:10112000012B08D0012380F83C300023036300F03A
:101130004FBA0120704702207047000030B50068A8
:10114000114988420CD1114841880A0408D402464A
:101150004C0412784FF0000306D50A2A01D04380D0
:1011600030BD41F400410DE00D2A09D0C1F30D045A
:10117000074D491C89B22A554180C729EFD830BD97
:1011800041F48041418030BD00100140100000203A
:10119000900100207047FEE70D4808B5016841F056
:1011A00080010160016801F080010091016841F057
:1011B00001010160016801F001010091016841F045
:1011C00002010160006800F00200009008BD00000C
:1011D00030380240FEE7FEE770477047FFF7FAB984
:1011E00030B593B030216846FFF728F814210CA8D9
:1011F000FFF724F81D480025016841F08051016087
:10120000006800F0805011901948016821F44041B5
:1012100041F4004101600068022400F44040119054
:1012200001200090000401908001CDE906401920C2
:101230000890A820CDE9090404200B906846FFF728
:101240004FFB08B172B6FEE70CA90F2081E8310010
:101250004FF48050CDE90F0502210CA8FFF754FA96
:10126000002801D072B6FEE713B030BD403802400E
:10127000007000400248016841F47001016070474D
:1012800088ED00E010B50A4C2068C068C043C00774
:1012900009D1084800698047216800204862216818
:1012A0006420C862E06021686FF00100086110BD31
:1012B0009C0200203C000020F0B502681D4B1E4C33
:1012C0009F031E4D1E4E984207D0B84205D0A04243
:1012D00003D0A84201D0B04204D122F0700C4A6879
:1012E00042EA0C02984210D0B8420ED0A0420CD074
:1012F000A8420AD0B04208D0124CA04205D0124CED
:10130000A04202D0114CA04203D122F44074CA681A
:1013100022434C6922F08002224302608A68C26242
:101320000A688262984201D1096901630121416121
:10133000F0BD000000000140000400400008004033
:10134000000C0040004001400044014000480140C2
:10135000F8B5064610480D460024016841F0040126
:1013600001600068032200F00400009011461E2076
:10137000FFF798F91E20FFF787F9094A0748106020
:10138000C2E90154C2E903641046FFF77FFCBDE8DF
:10139000F8400348FFF7DABC40380240000800403C
:1013A0009C02002010B5806B0021C185C184FFF72D
:1013B00004FD10BD01680C3151E8002F22F4907239
:1013C00041E80023002BF5D10168143151E8002FCA
:1013D00022F0010241E80023002BF5D1016B012925
:1013E00009D101680C3151E8002F22F0100241E8C8
:1013F0000023002BF5D1202180F83E10002101634D
:10140000704708B590F83E10222901D0022008BD8F
:1014100082684FF480539A4201D1016921B1816AF7
:101420009A421BD04AB10AE00268816A5268C2F34C
:1014300008020A80816A891C08E0026972B10268A8
:10144000526802F07F020A70816A491C8162C18D74
:10145000491E0904090CC18503D019E002685268CD
:10146000F1E70168CA6822F02002CA600168CA6810
:1014700022F48072CA6001684A6922F001024A615E
:10148000202180F83E10016B012903D0FFF756FEA2
:10149000002008BD0021016301680C3151E8002FD4
:1014A00022F0100241E80023002BF5D101680A6800
:1014B000D20602D50A6849680091818DFFF77CFC4D
:1014C000E6E7000070B5044600680169E26821F4AF
:1014D0004051114301612169A068E26908436169D3
:1014E000114308432168CA6849F20C639A430243D6
:1014F000CA6020684169A26921F4407111434161C9
:1015000031492068884202D03049884202D1FFF731
:10151000A5F901E0FFF792F9E2690023192164259A
:101520003226B2F5004F626828D0A0FB0101930F6C
:101530009200FEF74BFE0146B0FBF5F06FF018028B
:10154000504301EB800006EB0010B0FBF5F000F01B
:10155000F002B1FBF5F002EB0012B1FBF5F06FF019
:101560001803584301EB800006EB0010B0FBF5F0C8
:1015700000F00F0021681044886070BDA0FB0101DD
:1015800092185B41FEF722FE0146B0FBF5F0020126
:10159000B1FBF5F06FF01803584301EB800006EB48
:1015A000C000B0FBF5F000F0F80002EB4002B1FB28
:1015B000F5F0584301EB800006EBC000B0FBF5F0FE
:1015C00000F00700D6E700000010014000140140C1
:1015D00081628285C28500210164222280F83E203A
:1015E00080F83C100168CA6842F48072CA600168E1
:1015F0004A6942F001024A610068C16841F0200175
:10160000C16000207047000010B50A48FFF7DCFBFE
:101610000848FFF7D3FB2028FAD1012206490548E4
:10162000FFF776FD0028F8D1BDE810400348FFF72A
:10163000CBBB000058020020100000204C0100200D
:10164000FEE700000FB4054B10B503A9044A029849
:1016500000F028F810BC5DF814FB00006D1B0008BA
:10166000140000200907090E002804DB00F1E02027
:1016700080F80014704700F00F0000F1E02080F8BF
:10168000141D704702E008C8121F08C1002AFAD1D1
:1016900070477047002001E001C1121F002AFBD1F2
:1016A000704700002DE9FF4F8DB00F46054600261C
:1016B00006E025280BD0DDE90F1290476D1C761C43
:1016C00028780028F5D111B03046BDE8F08F00240D
:1016D000A246A1460122EC4900E0044315F8013F6F
:1016E000203B02FA03F00842F7D128782A2810D0CC
:1016F0006FF02F022878A0F13001092914D80AEBE5
:101700008A0102EB410144F0020400EB010A6D1C66
:10171000F0E701CF5FEA000A03D544F40054CAF1B0
:10172000000A44F002046D1C28782E2817D115F801
:10173000010F44F004042A280ED06FF02F022878FD
:10174000A0F1300109290AD809EB890102EB410116
:1017500000EB01096D1CF2E757F8049B6D1C28781B
:101760006C280FD006DC4C2817D068280DD06A28CA
:1017700014D104E0742810D07A280FD10DE044F47D
:1017800000140AE044F4801401E044F44014697841
:10179000814202D104F580146D1C6D1C2A786E2ADA
:1017A0001FD00CDC632A31D004DC002A8BD0582AED
:1017B00011D1A3E0642A68D0692A0CD165E0732AAC
:1017C0002ED004DC6F2A73D0702A04D19BE0752AD6
:1017D0006FD0782A6ED01046DDE90F129047761C44
:1017E00050E1C4F30250022806D0032809D004288F
:1017F00001CF09D0066045E101CFF117C0E90061D2
:1018000040E101CF06803DE106703BE117F8040B93
:101810008DF8000000208DF80100EB46012003E068
:1018200057F804BB4FF0FF3061074FF0000102D4BE
:101830000DE008F10101884649450FDA8045F8DBE3
:101840001BF808100029F4D108E008F101018846CE
:101850008142FADB1BF808100029F6D1DDE90F23DD
:10186000AAEB08008146214600F036F9304400EB2F
:10187000080604E0DDE90F121BF8010B9047B8F1F0
:101880000108F7D221464846F7E00A21C4F3025383
:101890004FF0000B0891022B04D001CFC117032B8E
:1018A00009D00AE0FF1D27F00707F7E8020108E06A
:1018B00032E01FE020E000B2C117042B01D140B29A
:1018C000C117031E71F1000307DA4FF0000CD0EBD3
:1018D0000C006CEB01012D2302E0230504D52B2322
:1018E0008DF82430012303E0E30701D02023F7E73C
:1018F000984658E00A2110E010210EE010204FF029
:10190000000B08900CE010214FF0000B44F0040491
:101910004FF00809089103E008214FF0000B0891EF
:10192000C4F30253022B04D001CF0021032B06D0B5
:1019300006E0FF1D27F00707F7E8020103E080B289
:10194000042B00D1C0B24FF0000823072BD5702A1A
:1019500007D0DDF820C08CF0100C5CEA0B0C05D031
:101960000EE040238DF82430012308E050EA010303
:1019700006D030238DF824308DF825200223984698
:10198000DDF820C08CF0080C5CEA0B0C0BD150EA9F
:10199000010301D1630706D530238DF824304FF0C1
:1019A0000108A9F10109582A04D038A20B9208AA0B
:1019B0000A920BE03AA2F9E75B46089AFEF706FCAA
:1019C0000B9B9B5C0A9A521E0A92137050EA01020A
:1019D000F2D10A98ADEB000000F1200B600702D5B0
:1019E00024F4803401E04FF00109D94502DDA9EB70
:1019F0000B0000E0002000EB0B0141440890AAEB33
:101A0000010AE00306D4DDE90F232146504600F029
:101A100063F806444FF0000908E009A911F809002D
:101A2000DDE90F12904709F10109761CC145F4DB8D
:101A3000E0030CD5DDE90F232146504600F04CF8B9
:101A4000064404E0DDE90F1230209047761C089927
:101A5000481E08900029F5DC08E00A980A990078E9
:101A6000491C0A91DDE90F129047761CBBF1000179
:101A7000ABF1010BF1DC21465046DDE90F2300F00C
:101A800019F806446D1C1BE6092801003031323379
:101A900034353637383961626364656600000000AA
:101AA0003031323334353637383941424344454694
:101AB000000000002DE9F041044600251E461746AF
:101AC000880404D405E039462020B0476D1C641E0C
:101AD000F9D52846BDE8F0812DE9F04104460025FE
:101AE0001E469046C80301D5302700E02027880411
:101AF00004D505E041463846B0476D1C641EF9D553
:101B00002846BDE8F081000010B504460420FFF728
:101B10009DF80148046010BD1800002070B505460E
:101B200000244FF47A7603E0304600F005F8641C98
:101B3000AC42F9D370BD000070B54FF0E024002234
:101B400065690949A36909684843A1699942FCD0BC
:101B500002D2A3EB010302E0A5EB010633441A44D1
:101B60000B468242F1D370BD1800002003490A6879
:101B70005206FCD5C2B24A60704700000010014016
:101B8000FEF730FD5420FFF7BFFFFFF729FBFFF7FB
:101B900003FB4FF4E13000F01BF806484168542085
:101BA00088474FF47A742046FEF70CFC02A0FFF73A
:101BB00049FDF8E73C0000207072696E7466BFC989
:101BC000D2D4CAB9D3C33132330D0A00006870478A
:101BD0000B4910B5094AC1E9002000208860C8609F
:101BE000086188610C2048610846FFF721FABDE8CA
:101BF0001040012203490248FFF78ABA0010014051
:101C0000580200201000002070B596B0054614ABB5
:101C100001AA03A900F0DEF9002824D18DF84C00B8
:101C20001D4C042615E000BF216806EBC00014AB74
:101C300008586A460BA900F0CDF9002813D103A972
:101C40000BA800F008FC80B19DF84C00401C8DF8FA
:101C50004C00217DC0B28142E6D8207D9DF84C1019
:101C600088420ED1042016B070BD9DF800009DF88A
:101C70000410884201D90220F5E79DF84C00A075B8
:101C8000EBE713A9284600F05DFA0028EBD19DF898
:101C90004C0060750020E6E73C0000202DE9F04193
:101CA0007F4C9AB0A57D207DA8427DD90421206873
:101CB00001EBC50119AB405810AA11A900F08AF92F
:101CC00011A978A0FFF7BEFC00270DF1180833E03A
:101CD000208B0121B940084217D0222173A0FFF7C1
:101CE000B1FC384600F098FA011971A02431FFF7D1
:101CF000A9FC22216DA0FFF7A5FC384600F08CFA64
:101D00002044243048F827000CE0384600F084FADC
:101D10002044416A48F82710E07D08B365A000BF61
:101D2000FFF790FC9DF84000401E874202D063A060
:101D3000FFF788FC7F1CFFB29DF840008742C7D3A5
:101D40005FA0FFF77FFC00F0ADFA607D0B2814D296
:101D5000DFE800F0080D31384048525E6B788800AB
:101D600058A0DDE7206850F83500804704E020687F
:101D700050F8351006988847064600F05FFA9DF83F
:101D8000640001287DD050A0FFF75CFC94F8EC00C3
:101D900000280DD0D4F8F0100A20B1FBF0F200FBBF
:101DA0001212B1FBF0F100E002E048A0FFF74AFC9C
:101DB0001AB0BDE8F081206850F83520DDE9060151
:101DC0009047D9E7206806AE50F8353096E807000E
:101DD0009847D1E7206806AE50F8355096E80F00D6
:101DE000A847C9E70A980090206806AE50F8355019
:101DF00096E80F00A847BFE7DDE90A01CDE9000139
:101E0000206806AE50F8355096E80F00A847B3E7B3
:101E10000AAB06AE93E807008DE80700206850F88B
:101E2000355096E80F00A847A6E70AAE96E80F00DF
:101E30008DE80F00206806AE50F8355096E80F0088
:101E4000A84799E70BAE96E80F0001AE86E80F00B1
:101E50000A980090206806AE50F8355096E80F00BA
:101E6000A84789E70CAE96E80F0002AE86E80F009F
:101E7000DDE90A01CDE90001206806AE50F83550D1
:101E800000E003E096E80F00A84775E7E07D3146E3
:101E900018B116A0FFF7D6FB78E717A0FAE7000005
:101EA0003C0000200D0A2573280000002563000077
:101EB0002573000030582558000000002C00000059
:101EC00029000000256C64003B0D0A0046756E6316
:101ED00074696F6E2052756E2054696D653A256481
:101EE0002E2531646D730D0A000000003D30582529
:101EF000583B0D0A000000003D256C753B0D0A00A3
:101F0000F0B50446002007460646054623782C2BEC
:101F100003D0292B04D01BB103E015B9012700E041
:101F200015B31EB1222B2BD0F7B92FE0A3F1300C43
:101F3000BCF1090F19D92D2B17D02B2B15D0A3F1DC
:101F4000610CBCF1050F10D9A3F1410CBCF1050FD8
:101F50000BD9582B09D0782B07D0222B0CD0202B53
:101F60001DD02C2B1BD0FF260CE05FB9612B00D3BA
:101F7000203B01F8013B12E027B9012635460EE06F
:101F8000002567B100230B701670F0BD3DB15C2BCE
:101F900002D1401CC0B2641C237801F8013B401CF4
:101FA000C0B2641CB2E730B5002515700AE001F834
:101FB000014B1478401C641CE4B214709C4201D3A1
:101FC000012030BD0478202C01D0002CEFD10D7001
:101FD000002030BD2DE9FF4F002582B09846044611
:101FE0002F462E464FF0010BAA462A46A94615E079
:101FF000202910D002F07F03052B0CD202B98022D9
:1020000002F07F03042B01D12A290AD1521C0DF8BA
:102010000310D2B201E0852A04D0401C01780029C7
:10202000E6D162B102F07F0244A10DF80290684649
:1020300000F011FA38B1012188F8001000224FF0A9
:102040000008234614E088F80090F7E708F1010043
:1020500000F0FF0813F8010F202801D02A2807D12B
:10206000184600F085F9282802D02A2800D04746D3
:102070001878282801D00028E8D10FB13C44641C0E
:1020800000273946207888B1282804D0292806D08E
:1020900022280FD010E079B96D1CEDB20CE059B9CF
:1020A00025B16D1E15F0FF0501D00CE00127012EB2
:1020B00032D039E049B100214DB12C280FD0202871
:1020C0001FD028281DD07AB117E00121F4E720287D
:1020D00020D0039B18700398401C03901AE0521CF8
:1020E0004FF0010BD2B20CE0BAF1050F05D20DF89A
:1020F0000A000AF1010000F0FF0A0BF1010000F0F4
:10210000FF0B012D06D1BBF1020F03D1761C4FF05E
:10211000030BF6B2641CB5E70DF80A9007A16846F8
:1021200000F099F900B9002604980670039880F829
:10213000009006B03846BDE8F08F0000766F696405
:10214000000000002DE9F04300248946314DB5B070
:10215000214622466B18491CC9B29A760A29F9D33E
:1021600003E000BF10F8011F91B101782829F9D1CF
:10217000461C012733AA69463046FFF7C1FE0644D4
:102180009DF8CC0040B1012824D0FF2839D10BE0C4
:10219000012035B0BDE8F0839DF8000080B334A97C
:1021A000684600F0EDF808B10220F2E7204600F0A2
:1021B00033F8284434994162288B07FA04F18843A4
:1021C0002883042029198876641CE4B20A2C18D9C3
:1021D0000320DEE7684600F053F900F101082046CD
:1021E00000F01AF841196846243100F040F9288BB4
:1021F00007FA04F108432919288381F81A80E3E7D4
:10220000FFE73078292801D00028B3D189F80040B1
:102210000020BEE73C000020024610B50020014629
:10222000054B05E05C18491CA47EC9B22044C0B22D
:102230009142F7D310BD00003C000020094800681F
:102240000169C943CA070849D1F8F02004D14FF603
:10225000FF731A44C1F8F020406A1044C1F8F0003E
:10226000704700009C0200203C00002000EBC001F1
:1022700001EB00104FF0FF3101EB800010B581B28F
:102280004FF47A70FFF764F801490120C87510BD5A
:102290003C0000200246012000E05043491EC9B224
:1022A000FBD2704707486FF00101026811610268B4
:1022B000090CD162C1600068002141620248C0F887
:1022C000F01070479C0200203C0000202DE9F041F6
:1022D000164D2888010426D51549C0B2154F002691
:1022E0000E54B9681248884704000FD0104800F017
:1022F000D1F8012801D0040014D0012C09D0022CFF
:1023000009D0032C09D0042C0CD108E0F8688047D0
:1023100008E009A004E00BA002E00DA000E00FA07F
:10232000FFF790F92E80BDE8F08100001200002038
:10233000900100203C000020BAAFCAFDB4EDCEF3FE
:10234000210D0A00B2CECAFDB4EDCEF3210D0A0074
:10235000B2CECAFDCCABB6E0210D0A00CEB4D5D2C8
:10236000B5BDC6A5C5E4B5C4BAAFCAFD210D0A0006
:1023700010F8011F202901D10028F9D1C8B27047F7
:102380002DE9F0430D4600244FF00A092646014688
:102390002C600A78A2F13003092B14D903782D2B75
:1023A00001D02B2B00D174B1A2F14103052B0AD926
:1023B000582A05D012F0FF0F17D00120BDE8F08396
:1023C000012C02D0F9E7412A01D34FF0100902781D
:1023D0002D2A04D02B2A04D0641CE4B203E0022688
:1023E00000E00126401C491CD3E70746B9F1100F55
:1023F00001D084B112E0032C01D20220DEE738784C
:10240000302802D17878582801D00320D6E7A41EBE
:10241000E4B2BF1C01E00420D0E70CB1641EE4B2BA
:102420003878A0F13001092901D8884601E0A0F1EF
:10243000370821464846FFF72DFF2A6808FB002091
:10244000286017F8011F0029E7D1022E01D1404270
:1024500028600020B2E702780B789A4201D0012070
:10246000704712B1401C491CF5E700207047027804
:102470000A700278002A02D0401C491CF7E7704716
:10248000002102781AB1491CC9B2401CF9E708467C
:1024900070470000F0B58DB004461E236A4602A9BD
:1024A000FFF781FD0190002872D19DF800002718E8
:1024B00000263E4C8DF800609DF8000054F8201076
:1024C00002A8FFF7C8FF38B19DF80000401CC0B259
:1024D0008DF800000728EFD39DF800000425344C48
:1024E000072855D2DFE800F00404395A605F5E0027
:1024F00030A0FFF7A7F830A0FFF7A4F83EA0FFF741
:10250000A1F84DA0FFF79EF85BA0FFF79BF86AA02B
:10251000FFF798F878A0FFF795F886A0FFF792F8F4
:102520008BA0FFF78FF893A0FFF78CF897A0FFF729
:1025300089F89CA0FFF786F8A1A0FFF783F8A7A071
:10254000FFF780F8B3A0FFF77DF8C0A0FFF77AF897
:10255000CBA0FFF777F8D7A01BE016A0FFF772F823
:10256000E4A0FFF76FF88DF800600BE0216805EB41
:10257000C0000958EFA0FFF765F89DF80000401C67
:102580008DF80000217D9DF800008142EED856E2D2
:1025900057E2FFF757F800200DB0F0BD05A0FFF798
:1025A00051F8CBE12CE20CE2EBE10000300100201D
:1025B0003C0000200D0A00002D2D2D2D2D2D2D2D40
:1025C0002D2D2D2D2D2D2D2D2D2D2D2D2D2D2D2D3B
:1025D00055534D4152542056332E332D2D2D2D2D34
:1025E0002D2D2D2D2D2D2D2D2D2D2D2D2D2D2D2D1B
:1025F0002D2D2D200D0A00002020202055534D4167
:102600005254CAC7D3C9414C49454E54454BBFAA41
:10261000B7A2B5C4D2BBB8F6C1E9C7C9B5C4B4AE98
:10262000BFDAB5F7CAD4BBA5BDBBD7E9BCFE2CCD7C
:10263000A8B9FD200D0A0000CBFC2CC4E3BFC9D211
:10264000D4CDA8B9FDB4AEBFDAD6FACAD6B5F7D3A1
:10265000C3B3CCD0F2C0EFC3E6B5C4C8CEBACEBACD
:10266000AFCAFD2CB2A2D6B4D0D02ED2F2B4CB2CAD
:10267000C4E3BFC90D0A0000D2D4CBE6D2E2B8FC55
:10268000B8C4BAAFCAFDB5C4CAE4C8EBB2CECAFD7D
:1026900028D6A7B3D6CAFDD7D62831302F3136BDBC
:1026A000F8D6C62CD6A7B3D6B8BACAFD29A1A2D7E8
:1026B000D6B7FBB4AE0D0A00A1A2BAAFCAFDC8EBF3
:1026C000BFDAB5D8D6B7B5C8D7F7CEAAB2CECAFD4D
:1026D000292CB5A5B8F6BAAFCAFDD7EEB6E0D6A795
:1026E000B3D63130B8F6CAE4C8EBB2CECAFD2CB2CC
:1026F000A2D6A7B3D60D0A00BAAFCAFDB7B5BBD8EC
:10270000D6B5CFD4CABE2ED6A7B3D6B2CECAFDCFC9
:10271000D4CABEBDF8D6C6C9E8D6C3B9A6C4DC2C97
:10272000D6A7B3D6BDF8D6C6D7AABBBBB9A6C4DC5C
:102730002E0D0A00BCBCCAF5D6A7B3D63A77777778
:102740002E6F70656E6564762E636F6D0D0A0000E6
:1027500055534D415254D3D037B8F6CFB5CDB3C34E
:10276000FCC1EE28B1D8D0EBD0A1D0B4293A0D0AE3
:10277000000000003F3A202020202020BBF1C8A10B
:10278000B0EFD6FAD0C5CFA20D0A000068656C7014
:102790003A202020BBF1C8A1B0EFD6FAD0C5CFA215
:1027A0000D0A00006C6973743A202020BFC9D3C39E
:1027B000B5C4BAAFCAFDC1D0B1ED0D0A0A00000020
:1027C00069643A2020202020BFC9D3C3BAAFCAFD14
:1027D000B5C44944C1D0B1ED0D0A0A006865783A24
:1027E00020202020B2CECAFD3136BDF8D6C6CFD4C7
:1027F000CABE2CBAF3B8FABFD5B8F12BCAFDD7D6EA
:10280000BCB4D6B4D0D0BDF8D6C6D7AABBBB0D0ACF
:102810000A0000006465633A20202020B2CECAFD81
:102820003130BDF8D6C6CFD4CABE2CBAF3B8FABF81
:10283000D5B8F12BCAFDD7D6BCB4D6B4D0D0BDF82C
:10284000D6C6D7AABBBB0D0A0A00000072756E740B
:10285000696D653A312CBFAAC6F4BAAFCAFDD4CBB4
:10286000D0D0BCC6CAB13B302CB9D8B1D5BAAFCAEA
:10287000FDD4CBD0D0BCC6CAB13B0D0A0A000000C3
:10288000C7EBB0B4D5D5B3CCD0F2B1E0D0B4B8F189
:10289000CABDCAE4C8EBBAAFCAFDC3FBBCB0B2CE76
:1028A000CAFDB2A2D2D4BBD8B3B5BCFCBDE1CAF854
:1028B0002E0D0A002D2D2D2D2D2D2D2D2D2D2D2DB7
:1028C0002D2D2D2D2D2D2D2D2D2D2D2D2D2D414C05
:1028D00049454E54454B2D2D2D2D2D2D2D2D2D2D76
:1028E0002D2D2D2D2D2D2D2D2D2D2D2D2D2D2D2025
:1028F0000D0A00002D2D2D2D2D2D2D2D2D2D2D2DA5
:102900002D2D2D2D2D2D2D2D2D2D2D2D2DBAAFCA4B
:10291000FDC7E5B5A52D2D2D2D2D2D2D2D2D2D2DC5
:102920002D2D2D2D2D2D2D2D2D2D2D2D2D2D2D2DD7
:10293000200D0A0025730D0A0000000042A0FEF7DA
:1029400081FE8DF8006016E0216805EBC0000BAB3E
:1029500008580AAA02A9FFF73DFB9DF8001020685D
:1029600050F8312002A948A0FEF76CFE9DF8000047
:10297000401C8DF80000217D9DF800008142E3D8C5
:102980005DE0AFF2D030FEF75DFE6A4602A9384640
:10299000FFF7B6FA9DF80000002843D101A902A86C
:1029A000FFF7EEFC8DF8000010B104283AD102E0E8
:1029B0003AA001991CE03CA0FEF744FE0120E0751E
:1029C0003DE038A0FEF73EFE6A4602A93846FFF712
:1029D00097FA9DF8000028BB01A902A8FFF7D0FCD8
:1029E0008DF8000010B104281CD104E033A0019937
:1029F000FEF728FE23E034A0FEF724FEE6751EE075
:102A000028A0FEF71FFE6A4602A93846FFF778FAAB
:102A10009DF8000030B901A902A8FFF7B1FC8DF8BC
:102A2000000008B10220B7E5019810F0FF0084F81B
:102A3000EC0001D029A000E02FA0FEF703FE19A0B2
:102A4000A7E50120A8E500002D2D2D2D2D2D2D2DE4
:102A50002D2D2D2D2D2D2D2D2D2D2D2D2D2D2D2DA6
:102A60002DBAAFCAFD204944202D2D2D2D2D2D2D01
:102A70002D2D2D2D2D2D2D2D2D2D2D2D2D2D2D2D86
:102A80002D2D2D2D200D0A002573206964206973DA
:102A90003A0D0A3058253038580D0A004845583A42
:102AA000305825580D0A00003136BDF8D6C6B2CED2
:102AB000CAFDCFD4CABE210D0A0000004445433AE6
:102AC000256C750D0A0000003130BDF8D6C6B2CEB7
:102AD000CAFDCFD4CABE210D0A00000052756E2077
:102AE00054696D652043616C63756C6174696F6EC8
:102AF000204F4E0D0A00000052756E2054696D651E
:102B00002043616C63756C6174696F6E204F46463B
:102B10000D0A000001607047000000000000000086
:102B20000102030406070809000000000102030473
:102B3000766F69642077726974655F616464722876
:102B400075333220616464722C7533322076616C87
:102B50002900000075333220726561645F6164642E
:102B6000722875333220616464722900766F69645B
:102B70002064656C61795F6D7328753136206E6DE8
:102B800073290000766F69642064656C61795F75F4
:102B90007328753332206E75732900003F000000E2
:102BA000646563006964000072756E74696D650028
:102BB00068656C70000000006C69737400000000B0
:102BC00068657800E42B0008000000204C0100003C
:102BD000B4020008342C00084C0100209C050000C1
:102BE0009416000832018210D324F413CD1B14086C
:102BF000542B1B0815041A30041A1D101A6C081ADD
:102C000039081A8408221C14206D221408091C1B80
:102C1000089D041ACD0C2204295301D91A9CF81AD4
:102C2000B0041AB8041AA4041AC0041AA0041AA8FA
:042C3000040000009C
:040000050800019559
:00000001FF
