:020000040800F2
:10000000B009002095020008D31700082B1700083C
:10001000D1170008C90800089D1C00080000000056
:10002000000000000000000000000000D7170008DA
:10003000CB08000800000000D5170008D9170008F9
:10004000AF020008AF020008AF020008AF020008CC
:10005000AF020008AF020008AF020008AF020008BC
:10006000AF020008AF020008AF020008AF020008AC
:10007000AF020008AF020008AF020008AF0200089C
:10008000AF020008AF020008AF0200080000000045
:10009000000000000000000000000000AF020008A7
:1000A000AF020008AF020008AF020008AF0200086C
:1000B000AF020008AF02000881180008AF02000874
:1000C000AF020008AF020008AF020008AF0200084C
:1000D000AF020008711C0008AF0200080000000019
:1000E000AF020008AF020008AF02000800000000E5
:1000F000000000000000000000000000AF02000847
:1001000000000000AF020008AF020008AF020008C4
:1001100000000000000000000000000000000000DF
:10012000AF020008AF020008AF020008AF020008EB
:10013000AF02000800000000000000000000000006
:10014000000000000000000000000000AF020008F6
:10015000AF020008AF020008AF020008AF020008BB
:10016000AF020008AF02000800000000000000001D
:10017000000000000000000000000000000000007F
:1001800000000000AF0200080000000000000000B6
:10019000AF02000800F002F800F06DF80AA090E845
:1001A000000C82448344AAF10107DA4501D100F032
:1001B00062F8AFF2090EBAE80F0013F0010F18BF92
:1001C000FB1A43F001031847982B0000B82B0000DE
:1001D0000A444FF0000C10F8013B13F0070408BF6D
:1001E00010F8014B1D1108BF10F8015B641E05D00B
:1001F00010F8016B641E01F8016BF9D113F0080FC0
:100200001EBF10F8014BAD1C0C1B09D16D1E58BF51
:1002100001F801CBFAD505E014F8016B01F8016B88
:100220006D1EF9D59142D6D37047000000230024FB
:1002300000250026103A28BF78C1FBD8520728BFF6
:1002400030C148BF0B607047642900F017817529E1
:1002500000F01481782900F04D81632900F0C882F4
:10026000732900F0CD82002070471FB502F000FD19
:100270001FBD10B510BD00F0F5FA1146FFF7F5FFF0
:1002800001F056FD00F013FB03B4FFF7F2FF03BCCF
:1002900001F01CFD0948804709480047FEE7FEE7DA
:1002A000FEE7FEE7FEE7FEE7FEE7FEE7FEE7FEE726
:1002B00004480549054A064B7047000071180008BC
:1002C00095010008B0030020B0090020B00500200F
:1002D000B0050020704753EA020C00F069802DE958
:1002E000F04B4FF00006002B1FBFB3FA83F503FA63
:1002F00005F424FA05F65E4012BF1643B2FA82F501
:1003000002FA05F4C5F120051EBF22FA05FC44EAF5
:100310000C04203556EA044C4FEA144418BF641C00
:100320004FF000084FF00009904271EB030C39D3F5
:10033000002919BFB1FA81F701FA07F6B0FA80F780
:1003400000FA07F6C7F120071EBF20FA07FC46EAAD
:100350000C062037B6FBF4FCA7EB0507103F07F0AF
:100360001F0BCBF120060CFA0BFB2CFA06F644BF50
:10037000B3460026202FA4BF5E464FF0000B5BEA79
:10038000060C08BF4FF0010B19EB0B09ABFB027C0D
:1003900048EB0608C01B06FB02CC0BFB03CC71EB41
:1003A0000C01C1E70B46024641464846BDE8F08BCA
:1003B00013B54FF000004FF00001AFF30080BDE82F
:1003C0001C4070470FB4044910B503AA029800F00E
:1003D0001BFA10BC5DF814FB4801002070B5044600
:1003E00085690068C10601D5302600E02026C007D7
:1003F00007D070BDD4E9012130469047206A401CE7
:1004000020626D1EF6D570BD70B504468569007812
:10041000C00707D170BDD4E9012120209047206A90
:10042000401C20626D1EF6D570BD70B50C460546A9
:10043000012A05D02878800600D5EA69002302E069
:10044000012305E05B1C934202D2E05C0028F9D155
:10045000A869E618C01AA861286A184428622846C4
:10046000FFF7BCFF04E0D5E9012114F8010B904728
:10047000B442F8D32846FFF7C7FF70BD2DE9F0411D
:100480000646002410687529314616A510D0AFF332
:100490000080002802DA404213A507E031688A078D
:1004A00001D512A502E0490704D511A5012401E0F8
:1004B000AFF3008000210A2206F1240709E0B0FB17
:1004C000F2FCB0FBF2F302FB1C003030785418460B
:1004D000491C0028F3D123462A463046BDE8F041A6
:1004E00000F023B9000000002D0000002B000000E8
:1004F0002000000070B504460D4621461068AFF399
:1005000000802188090502D50F4A7A4402E00E4A8C
:100510007A440E32002104F1240305E000F00F06B6
:100520000009965D5E54491C0028F7D1207800230D
:10053000000704D5702D02D009B1022311322046E4
:10054000BDE8704000F0F1B8842700002DE9F05FAD
:10055000894604464FF0000ADFF874B1FB44C0F846
:1005600020A02046E1688847002874D0252806D0BE
:10057000D4E901219047206A401C2062F1E700265F
:100580005F462046E16888472028054607DB312D75
:1005900005D2781910F8200C08B10643F1E7B0072E
:1005A00001D526F00406C4F81CA00027C4F818A042
:1005B0002A2D09D0284601F082FB38B304EB8708C6
:1005C000303DC8F8185019E059F8041B204604EBD8
:1005D00087029161E1688847012F054618D1E069DB
:1005E000002820DA26F020061DE0D8F8180000EBDD
:1005F000800005EB40003038C8F818002046E1685C
:100600008847054601F05BFB0028EED1012F0AD098
:100610002E2D08D12046E16888477F1C0546022F11
:1006200046F02006C4DBA069002803DA404246F009
:100630000106A061F00701D026F010066C2D0BD04A
:10064000682D09D04C2D39D06A2D35D0742D35D078
:100650007A2D33D016E038E0E1682F4620468847EF
:10066000B842054609D16C2F26D04FF48060E1686E
:10067000064320468847054604E06C2F1AD04FF405
:10068000807006430DB3A5F14100192802D820352A
:1006900046F400664A462946204626604E46FFF745
:1006A000D3FD80B101280BD0F61D26F0070000F124
:1006B000080956E74020E4E78020D8E70020D6E785
:1006C00006F104094DE7284652E7206ABDE8F09F8D
:1006D0005A2700004FF0000200B513469446964694
:1006E000203922BFA0E80C50A0E80C50B1F1200145
:1006F000BFF4F7AF090728BFA0E80C5048BF0CC0F3
:100700005DF804EB890028BF40F8042B08BF704750
:1007100048BF20F8022B11F0804F18BF00F8012BC2
:10072000704770477047704770472DE9F0470D4696
:1007300099469246044600F124080168880604D5CB
:10074000E06921F01001216000E00120A84201DDF4
:10075000471B00E00027A1697A1902EB0900081A7B
:10076000A0612078C00602D42046FFF737FE00269D
:1007700008E0D4E901211AF806009047206A401CDD
:10078000761C20624E45F4DB2078C0060AD5204650
:10079000FFF724FE06E0D4E9012130209047206ACB
:1007A000401C2062381EA7F10107F4DC07E0D4E901
:1007B000012118F805009047206A401C2062281E7D
:1007C000A5F10105F3DC2046FFF71EFE20780006A8
:1007D00002D50220BDE8F0870120FBE710B5436990
:1007E00013B1AFF3008001E0FFF71FFE012010BD41
:1007F000127800F124010A7000224A700122EDE70C
:1008000011684FF0FF32E9E7074B70B50D467B44A6
:1008100000F011F80446284600F020F810B14FF01F
:10082000FF3070BD204670BD0B15000001694A1CE9
:1008300002610878704700B58FB0CDE90131002121
:10084000059105497944CDE9031011466846FFF743
:100850007DFE0FB000BD0000E5FFFFFF007B00F054
:1008600080007047754600F02BF8AE4605006946DB
:10087000534620F00700854618B020B5FFF718FD55
:10088000BDE820404FF000064FF000074FF0000891
:100890004FF0000B21F00701AC46ACE8C009ACE812
:1008A000C009ACE8C009ACE8C0098D46704710B576
:1008B0000446AFF300802046BDE81040FFF7E4BCDB
:1008C0000048704750030020FEE7704772B6FEE70D
:1008D0002DE9F0410446876D00F066F9064694F86C
:1008E00035000025022806D08020606584F8345049
:1008F0000120BDE8F0812068016821F01601016047
:100900002068416921F080014161206C08B9A06C28
:1009100020B12068016821F00801016020680168A9
:1009200021F0010101600CE000F03EF9801B052878
:1009300007D920206065032084F8350084F83450FE
:10094000D7E720680068C007EED194F85C103F201C
:100950008840B860012084F8350084F834500020C5
:10096000C7E790F83510022903D0802141650120A6
:100970007047052180F835100068016821F00101F9
:10098000016000207047000070B5044600F00CF9CB
:100990000546601C02D004480078044400F004F9C5
:1009A000401BA042FAD370BD000000202DE9F84F93
:1009B000DFF8B8A1002201240AF1040B03254FF04F
:1009C0000F090BF1040E00BF0B6804FA02F6334066
:1009D000B34273D10F7907F00307012F01D0022F23
:1009E00016D187684FEA420805FA08FC27EA0C0787
:1009F000D1F80CC00CFA08FC4CEA070CC0F808C08F
:100A00004768B7430E79C6F3001696403E434660EA
:100A10000E79F643B6070DD0C768560005FA06FCF6
:100A200027EA0C07D1F808C00CFA06FC4CEA070CC0
:100A3000C0F80CC00E7906F00306022E10D1D608BD
:100A400000EB8608D8F8206057074FEAD76C09FA00
:100A50000CF7BE430F6907FA0CF73743C8F820704C
:100A600006684FEA420C05FA0CF7BE430F7907F00F
:100A7000030707FA0CF7374307604E6816F4403F48
:100A80006DD03B4E376847F480473760366822F0B8
:100A9000030706F480460096364E07EB060CDCF89A
:100AA000086897073F0F09FA07F826EA0806DFF8F3
:100AB000C880404503D14FF000081EE04FE0DFF84A
:100AC000BC80404502D14FF0010816E0DFF8B0804D
:100AD000404502D14FF002080FE0DFF8A880404502
:100AE00002D14FF0030808E0DFF89C80404502D1B6
:100AF0004FF0040801E04FF0070808FA07F848EA49
:100B00000608CCF80888DAF800605746D1F804C027
:100B10009E435FEACC3C00D51E433E60DBF800609C
:100B20005F46D1F804C09E435FEA8C3C00D51E436B
:100B30003E60DEF800607746D1F804C09E435FEA6D
:100B4000CC2C00D51E433E60084F0C373E68D1F8D0
:100B500004C09E435FEA8C2C00D51E433E60521CAD
:100B6000102AFFF431AFBDE8F88F0000003C0140CF
:100B700044380240003001400000024000040240BE
:100B800000080240000C024000100240426921EAC5
:100B900002030A4043EA0241816170470AB1816160
:100BA00070470904FBE700000148806870470000B7
:100BB000000000200248816802781144816070477B
:100BC000000000200B4810B5016841F4007101607D
:100BD000016841F480610160016841F48071016045
:100BE000032000F06FF80F2000F006F800F024F862
:100BF000002010BD003C024070B50D4D04464FF47E
:100C00007A712878B1FBF0F00A490968B1FBF0F07D
:100C100000F00CFB48B9102C07D200222146501ED0
:100C200000F030F800206C6070BD012070BD000045
:100C3000000000200C0000200A4808B5016841F4BB
:100C400080410160006800F4804000900548001F6A
:100C5000016841F080510160006800F08050009010
:100C600008BD000044380240002809DB00F01F02E4
:100C7000012191404009800000F1E020C0F80011FE
:100C800070470000F0B40E4B1B680C46C3F3022300
:100C9000C3F10705042D00D90425191D072901D228
:100CA000002300E0DB1E012606FA05F1491E214063
:100CB00099409E40761E16403143F0BC00F0EFBFD5
:100CC0000CED00E0064900F0070208684FF6FF034C
:100CD000184040EA0220034A1043086070470000B1
:100CE0000CED00E00000FA052DE9F0470E46050086
:100CF00065D0DFF81481D8F80000F7B200F00700E3
:100D0000B04207D288F80070D8F8000000F0070061
:100D1000B04254D128683D4C810712D5400703D515
:100D2000206840F4E05020602878000703D5206850
:100D300040F4604020602068A96820F0F00008437B
:100D400020602878C0072DD030496868083901280C
:100D500012D0022813D0032811D00968890700296E
:100D60002DDA216821F0030101432160FFF71CFF08
:100D7000814641F2883A0EE009688903EFE7096885
:100D80008901ECE7FFF710FFA0EB0901514502D9FB
:100D90000320BDE8F0872068696800F00C00B0EB24
:100DA000810FEFD1D8F80010404601F00701B142A1
:100DB00007D90770006800F00700B04201D0012099
:100DC000E7E72878400705D52068E96820F4E05077
:100DD000084320602878000706D52068296920F498
:100DE000604040EAC100206000F038F82168084AFD
:100DF000C1F30311515CC840064908600648006809
:100E0000FFF7FAFE0020C4E7003C02400838024029
:100E10007A2C00080C00002004000020044805493A
:100E200000680968044AC1F38221515CC8407047D8
:100E30000C000020083802408A2C000804480549AC
:100E400000680968044AC1F34231515CC8407047E8
:100E50000C000020083802408A2C0008154810B504
:100E6000006810F00C02144813D01449042A0FD063
:100E7000082A0ED10F4C241F2268236802F03F027B
:100E80005B0207D52068C0F38810A0FB010106E0D3
:100E9000084610BD2168C1F38811A1FB00010023A1
:100EA000FFF719FA2168C1F30141491C4900B0FB61
:100EB000F1F010BD083802400024F40000366E0145
:100EC0002DE9F84F04006ED02078DFF84C93C0076E
:100ED000A9F104054AD009F104000168C1F38101B8
:100EE000012908D00068C0F3810002280AD1D9F88E
:100EF0000000400206D52868800337D560680028C6
:100F0000E1D033E06068B0F5803F10D0B0F5A02F9D
:100F1000286810D020F480302860286820F48020D1
:100F200028606068A8B1FFF73FFE06460DE028681C
:100F300040F48030F4E740F480202860F7E700BFF9
:100F4000FFF732FE801B642873D828688003F7D52A
:100F50000CE0FFF729FE064605E000BFFFF724FE80
:100F6000801B6428F0D828688003F7D42078DFF845
:100F7000AC8280074FF0000A3ED5A748001D0168EB
:100F800011F00C0F08D00068C0F3810002280BD1CB
:100F9000D9F80000400207D42868800716D5E06819
:100FA000012800D112E033E1E068B8B10120C8F8AF
:100FB0000000FFF7F9FD064605E000BFFFF7F4FD6E
:100FC000801B0228C0D828688007F7D528682169C7
:100FD00020F0F80040EAC10028600DE0C8F800A049
:100FE000FFF7E2FD064604E0FFF7DEFD801B022866
:100FF0001FD828688007F7D42078000722D5864FAD
:1010000087486169703771B101210160FFF7CCFD3C
:10101000064604E0FFF7C8FD801B022809D838689F
:101020008007F7D50EE0C0F800A0FFF7BDFD06462B
:1010300005E082E0FFF7B8FD801B02287DD8386804
:101040008007F7D42078400768D5DFF8CCB10027B7
:101050000BF13C0BDBF80000C0000BD4DBF80010F8
:1010600041F08051CBF80010DBF80000012700F0C0
:10107000805000906B4E3068C00510D4306840F44A
:1010800080703060FFF790FD009005E0FFF78CFD69
:101090000099401A022850D83068C005F6D55E4E37
:1010A000A0686C3601280FD00528306810D020F0D9
:1010B00001003060306820F004003060A068B8B1F2
:1010C000FFF772FD00900FE0306840F00100F4E798
:1010D00040F004003060F7E7FFF766FD0099411A21
:1010E00041F28830814266D830688007F4D50EE03E
:1010F000FFF75AFD009007E0FFF756FD0099411AEF
:1011000041F28830814256D830688007F4D42FB13C
:10111000DBF8001021F08051CBF80010A069C8B3B3
:101120003D49091D0968C1F3810102294AD00228FD
:10113000504607D0C8F8600000E03CE0FFF734FDFF
:1011400004463BE04746C8F86000FFF72DFD064621
:1011500005E000BFFFF728FD801B02282BD8286878
:101160008001F7D4D4E907010843A16A2E4A49084F
:1011700002EB0141626A41EA8211084394F82C10A3
:1011800040EA0161C9F8001001203866FFF70CFD44
:10119000044606E03EE000BFFFF706FD001B022804
:1011A00009D828688001F7D534E000BFFFF7FCFCC0
:1011B000001B022802D90320BDE8F88F28688001AF
:1011C000F4D427E00128F7D0D9F80000E26900F450
:1011D000800191421CD1226A00F03F01914217D157
:1011E00047F6C071626A0140B1EB821F10D1A26A5A
:1011F0004FF0FF3300F4403103EB5202B1EB024FEA
:1012000006D194F82C1000F07060B0EB016F01D0A3
:101210000120D1E70020CFE7043802400000474218
:10122000800E4742007000400000FFFF10B5401ED6
:10123000B0F1807F01D3012010BD4FF0E024606148
:101240000F21601700F02BFD0020A0610720206116
:10125000002010BD704770477047000010B50400B3
:1012600003D094F83D0010B10EE0012010BD002025
:1012700084F83C00204600F069FBA06C08B91148D6
:10128000A064014620468847022084F83D00211DC5
:10129000206800F00FFB012084F8460084F83E002F
:1012A00084F83F0084F8400084F8410084F842004C
:1012B00084F8430084F8440084F8450084F83D0035
:1012C000002010BDC91200087047000090F83D10C2
:1012D000012901D001207047022180F83D100168EA
:1012E000CA6842F00102CA6000680E4988420ED006
:1012F000B0F1804F0BD00C49884208D00B4988428E
:1013000005D00B49884202D00A49884204D181683D
:1013100001F00701062903D0016841F001010160D5
:101320000020704700000140000400400008004019
:10133000000C004000400140704770477047704704
:1013400070477047704770477047704770477047E5
:1013500010F83D1F4078084370470000F8B5016859
:1013600004460868CA684B6910F00F0F4FF000057B
:1013700059D003F0010602F49077374365D0C107D6
:1013800005D0D10503D5216C41F00101216441074D
:1013900005D5D90703D0216C41F0020121648107F2
:1013A00005D5D90703D0216C41F004012164010760
:1013B00007D502F02001314303D0216C41F0080130
:1013C0002164216C00293AD0800604D5900602D50C
:1013D000204600F04AFB20684069216CC0F3801071
:1013E000090700D460B3204600F018FB206840696C
:1013F000400621D52068143050E8001F21F040013C
:1014000040E80012002AF5D1A06BA8B16C49016533
:10141000A06BFFF7A6FA002811D0A06B016D01B0F8
:10142000BDE8F040084783060FD593060DD520464A
:10143000BDE8F84000F019BB2046FFF788FFF8BD73
:101440002046FFF784FF2564F8BD266B2023012E7C
:1014500079D1C60677D5D60675D508684868009054
:101460004869400640D5A16B086840680004000C3C
:10147000EAD0A28D8242E7D9E085C869B0F5807FC5
:101480002DD020680C3050E8001F21F4807140E816
:101490000012002AF5D12068143050E8001F21F016
:1014A000010140E80012002AF5D12068143050E80C
:1014B000001F21F0400140E80012002AF5D184F815
:1014C0003E30256320680C3050E8001F21F01001E9
:1014D00040E80012002AF5D1A06BFFF7F9F9A08DC2
:1014E000E18D401A81B229E0A08DE18D401A81B2D0
:1014F000E08D0028A8D00029A6D020680C3050E844
:10150000002F22F4907240E80026002EF5D12068CA
:10151000143050E8002F22F0010240E80026002E8F
:10152000F5D184F83E30256320680C3050E8002F58
:1015300022F0100240E80023002BF5D12046FFF7EF
:1015400005FFF8BDFFE705062BD5150629D594F84C
:101550003D002128F5D1A068B0F5805F01D1206958
:10156000B0B1206A411C2162216800784860E08C9B
:10157000401E0004000CE084E3D12068C16821F023
:101580008001C1602068C16841F04001C160D8E7B6
:10159000206A0088C0F308004860206A801C20622E
:1015A000E5E74006CDD55006CBD5CA68204622F0E7
:1015B0004002CA6084F83D3000F0B6F8C1E7000090
:1015C0000D1A000870B5040004D094F83D00002501
:1015D00010B106E0012070BD84F83C50204600F0B8
:1015E00023F8242084F83D002068C16821F40051CC
:1015F000C160204600F09AFA2068016921F4904108
:1016000001612068416921F02A0141612068C168B7
:1016100041F40051C1602564202084F83D0084F825
:101620003E00002070BD000010B586B004461421B5
:101630006846FFF74FF818492068884229D11748B3
:101640000021026842F010020260006800F0100001
:10165000059012481438026842F0010202600068E6
:1016600000F0010005904FF4C06000900220CDE929
:101670000101032003900720049069460848FFF702
:1016800095F9002211462520FFF7FCFA2520FFF7E7
:10169000EBFA06B010BD00000010014044380240D3
:1016A0000000024090F83E30202B0ED159B152B1CB
:1016B00090F83C30012B08D0012380F83C30002307
:1016C000036300F0B9BA01207047022070470000A0
:1016D00030B50068114988420CD1114841880A048C
:1016E00008D402464C0412784FF0000306D50A2AAB
:1016F00001D0438030BD41F400410DE00D2A09D0F6
:10170000C1F30D04074D491C89B22A554180C729F0
:10171000EFD830BD41F48041418030BD0010014020
:1017200044010020440200207047FEE710B586B057
:1017300014216846FEF7CEFF1548016841F080018C
:101740000160016801F080010591016841F002012A
:101750000160016801F002010591016841F0010199
:10176000016000680B4C00F001000590002201218F
:101770002046FFF713FA01210220CDE90210009163
:10178000019169462046FFF711F906B010BD00002F
:1017900030380240000402400C4810B50A4901608C
:1017A0004FF4E1314160002181600C22C160C0E949
:1017B00004128161C161FFF705FF002803D0BDE875
:1017C0001040FFF783B810BD001001404C0100200D
:1017D000FEE7FEE770477047FFF7ECB930B593B00E
:1017E00030216846FEF776FF14210CA8FEF772FF41
:1017F0001D480025016841F080510160006800F03B
:10180000805011901948016821F4404141F4004191
:1018100001600068022400F4404011900120009013
:10182000000401908001CDE906400C20089054206E
:10183000CDE9090404200B906846FFF741FB08B18D
:1018400072B6FEE70CA90F2081E831004FF48050FA
:10185000CDE90F0502210CA8FFF746FA002801D0B8
:1018600072B6FEE713B030BD403802400070004051
:101870000248016841F470010160704788ED00E0A2
:1018800010B50A4C2068C068C043C00709D1084899
:101890000069804721680020486221686420C8628E
:1018A000E06021686FF00100086110BD9001002028
:1018B0004C000020F0B502681D4B1E4C9F031E4DCE
:1018C0001E4E984207D0B84205D0A04203D0A8428D
:1018D00001D0B04204D122F0700C4A6842EA0C02F6
:1018E000984210D0B8420ED0A0420CD0A8420AD0E4
:1018F000B04208D0124CA04205D0124CA04202D0F7
:10190000114CA04203D122F44074CA6822434C69AE
:1019100022F08002224302608A68C2620A68826200
:10192000984201D10969016301214161F0BD0000C4
:10193000000001400004004000080040000C00408E
:101940000040014000440140004801400D4940F87A
:10195000801F0D4941600D4981600D49C1600D49ED
:1019600001610D4941610D4981610D49C1610D4917
:1019700001620D4941620D4981620D49C1620D4903
:101980000163704745130008471300084913000816
:101990004B1300083B1300083D1300083F130008D9
:1019A00041130008431300083913000857120008B8
:1019B0005912000855120008F8B5064610480D46A1
:1019C0000024016841F0040101600068032200F076
:1019D0000400009011461E20FFF754F91E20FFF767
:1019E00043F9094A07481060C2E90154C2E9036497
:1019F0001046FFF733FCBDE8F8400348FFF766BC2C
:101A000040380240000800409001002010B5806B73
:101A10000021C185C184FFF79AFC10BD01680C311B
:101A200051E8002F22F4907241E80023002BF5D1F9
:101A30000168143151E8002F22F0010241E800232F
:101A4000002BF5D1016B012909D101680C3151E856
:101A5000002F22F0100241E80023002BF5D12021B5
:101A600080F83E1000210163704708B590F83E10E1
:101A7000222901D0022008BD82684FF480539A4287
:101A800001D1016921B1816A9A421BD04AB10AE0B1
:101A90000268816A5268C2F308020A80816A891C5E
:101AA00008E0026972B10268526802F07F020A70AF
:101AB000816A491C8162C18D491E0904090CC185D6
:101AC00003D019E002685268F1E70168CA6822F0A1
:101AD0002002CA600168CA6822F48072CA60016884
:101AE0004A6922F001024A61202180F83E10016B10
:101AF000012903D0FFF7ECFD002008BD00210163A0
:101B000001680C3151E8002F22F0100241E8002357
:101B1000002BF5D101680A68D20602D50A68496827
:101B20000091818DFFF712FCE6E7000070B50446D6
:101B300000680169E26821F44051114301612169A3
:101B4000A068E26908436169114308432168CA68D3
:101B500049F20C639A430243CA6020684169A26952
:101B600021F440711143416131492068884202D01B
:101B70003049884202D1FFF761F901E0FFF74EF9E1
:101B8000E2690023192164253226B2F5004F62680C
:101B900028D0A0FB0101930F9200FEF79CFB0146A9
:101BA000B0FBF5F06FF01802504301EB800006EB3C
:101BB0000010B0FBF5F000F0F002B1FBF5F002EB25
:101BC0000012B1FBF5F06FF01803584301EB8000F1
:101BD00006EB0010B0FBF5F000F00F002168104498
:101BE000886070BDA0FB010192185B41FEF773FB9A
:101BF0000146B0FBF5F00201B1FBF5F06FF0180300
:101C0000584301EB800006EBC000B0FBF5F000F09C
:101C1000F80002EB4002B1FBF5F0584301EB800005
:101C200006EBC000B0FBF5F000F00700D6E70000BF
:101C3000001001400014014081628285C2850021AC
:101C40000164222280F83E2080F83C100168CA68B6
:101C500042F48072CA6001684A6942F001024A6136
:101C60000068C16841F02001C16000207047000099
:101C700010B50848FFF772FB0648FFF769FB2028FC
:101C8000FAD1012204490348FFF70CFD0028F8D1DE
:101C900010BD00000C03002044010020FEE70907EE
:101CA000090E002804DB00F1E02080F800147047E2
:101CB00000F00F0000F1E02080F8141D704730386C
:101CC0000A2801D20120704700207047704770B584
:101CD000054600244FF47A7603E0304600F004F81D
:101CE000641CAC42F9D370BD70B54FF0E024002203
:101CF00065690949A36909684843A1699942FCD00B
:101D000002D2A3EB010302E0A5EB010633441A441F
:101D10000B468242F1D370BD4001002003490A689E
:101D20005206FCD5C2B24A60704700000010014064
:101D3000FEF748FFFFF752FDFFF7F8FCFFF72CFD19
:101D4000054D4FF47A742046FEF71EFE0121284609
:101D5000FEF71CFFF7E70000000402400068704730
:101D600070B596B0054614AB01AA03A900F0DEF9E0
:101D7000002824D18DF84C001D4C042615E000BF2E
:101D8000216806EBC00014AB08586A460BA900F0A6
:101D9000CDF9002813D103A90BA800F008FC80B1ED
:101DA0009DF84C00401C8DF84C00217DC0B2814252
:101DB000E6D8207D9DF84C1088420ED1042016B044
:101DC00070BD9DF800009DF80410884201D90220E2
:101DD000F5E79DF84C00A075EBE713A9284600F045
:101DE0005DFA0028EBD19DF84C0060750020E6E715
:101DF0004C0000202DE9F0417F4C9AB0A57D207D5C
:101E0000A8427DD90421206801EBC50119AB4058D7
:101E100010AA11A900F08AF911A978A0FEF7D2FA48
:101E200000270DF1180833E0208B0121B94008424A
:101E300017D0222173A0FEF7C5FA384600F098FAB1
:101E4000011971A02431FEF7BDFA22216DA0FEF721
:101E5000B9FA384600F08CFA2044243048F82700BC
:101E60000CE0384600F084FA2044416A48F8271014
:101E7000E07D08B365A000BFFEF7A4FA9DF840001E
:101E8000401E874202D063A0FEF79CFA7F1CFFB27F
:101E90009DF840008742C7D35FA0FEF793FA00F099
:101EA000ADFA607D0B2814D2DFE800F0080D313860
:101EB0004048525E6B78880058A0DDE7206850F8F3
:101EC0003500804704E0206850F8351006988847B0
:101ED000064600F05FFA9DF8640001287DD050A00E
:101EE000FEF770FA94F8EC0000280DD0D4F8F0104A
:101EF0000A20B1FBF0F200FB1212B1FBF0F100E09E
:101F000002E048A0FEF75EFA1AB0BDE8F081206852
:101F100050F83520DDE906019047D9E7206806AE84
:101F200050F8353096E807009847D1E7206806AEAC
:101F300050F8355096E80F00A847C9E70A98009076
:101F4000206806AE50F8355096E80F00A847BFE766
:101F5000DDE90A01CDE90001206806AE50F83550F0
:101F600096E80F00A847B3E70AAB06AE93E8070070
:101F70008DE80700206850F8355096E80F00A84714
:101F8000A6E70AAE96E80F008DE80F00206806AEBF
:101F900050F8355096E80F00A84799E70BAE96E841
:101FA0000F0001AE86E80F000A980090206806AE88
:101FB00050F8355096E80F00A84789E70CAE96E830
:101FC0000F0002AE86E80F00DDE90A01CDE900014D
:101FD000206806AE50F8355000E003E096E80F00A8
:101FE000A84775E7E07D314618B116A0FEF7EAF97B
:101FF00078E717A0FAE700004C0000200D0A2573CF
:102000002800000025630000257300003058255883
:10201000000000002C00000029000000256C640076
:102020003B0D0A0046756E6374696F6E2052756EC3
:102030002054696D653A25642E2531646D730D0A4F
:10204000000000003D305825583B0D0A00000000FC
:102050003D256C753B0D0A00F0B50446002007468F
:102060000646054623782C2B03D0292B04D01BB120
:1020700003E015B9012700E015B31EB1222B2BD0C8
:10208000F7B92FE0A3F1300CBCF1090F19D92D2BB2
:1020900017D02B2B15D0A3F1610CBCF1050F10D973
:1020A000A3F1410CBCF1050F0BD9582B09D0782BAB
:1020B00007D0222B0CD0202B1DD02C2B1BD0FF2681
:1020C0000CE05FB9612B00D3203B01F8013B12E02B
:1020D00027B9012635460EE0002567B100230B70B5
:1020E0001670F0BD3DB15C2B02D1401CC0B2641C27
:1020F000237801F8013B401CC0B2641CB2E730B544
:10210000002515700AE001F8014B1478401C641C8E
:10211000E4B214709C4201D3012030BD0478202C1D
:1021200001D0002CEFD10D70002030BD2DE9FF4F04
:10213000002582B0984604462F462E464FF0010BEC
:10214000AA462A46A94615E0202910D002F07F03AE
:10215000052B0CD202B9802202F07F03042B01D19F
:102160002A290AD1521C0DF80310D2B201E0852AA7
:1021700004D0401C01780029E6D162B102F07F0250
:1021800044A10DF80290684600F011FA38B101211F
:1021900088F8001000224FF00008234614E088F869
:1021A0000090F7E708F1010000F0FF0813F8010FB5
:1021B000202801D02A2807D1184600F085F92828C0
:1021C00002D02A2800D047461878282801D00028B5
:1021D000E8D10FB13C44641C00273946207888B10F
:1021E000282804D0292806D022280FD010E079B959
:1021F0006D1CEDB20CE059B925B16D1E15F0FF054F
:1022000001D00CE00127012E32D039E049B1002184
:102210004DB12C280FD020281FD028281DD07AB1EE
:1022200017E00121F4E7202820D0039B18700398C1
:10223000401C03901AE0521C4FF0010BD2B20CE08C
:10224000BAF1050F05D20DF80A000AF1010000F0FD
:10225000FF0A0BF1010000F0FF0B012D06D1BBF1CD
:10226000020F03D1761C4FF0030BF6B2641CB5E7E6
:102270000DF80A9007A1684600F099F900B9002608
:1022800004980670039880F8009006B03846BDE8C0
:10229000F08F0000766F6964000000002DE9F043C4
:1022A00000248946314DB5B0214622466B18491CA1
:1022B000C9B29A760A29F9D303E000BF10F8011FCA
:1022C00091B101782829F9D1461C012733AA694622
:1022D0003046FFF7C1FE06449DF8CC0040B101280E
:1022E00024D0FF2839D10BE0012035B0BDE8F083C0
:1022F0009DF8000080B334A9684600F0EDF808B1FD
:102300000220F2E7204600F033F828443499416275
:10231000288B07FA04F1884328830420291988763A
:10232000641CE4B20A2C18D90320DEE7684600F0EA
:1023300053F900F10108204600F01AF841196846E7
:10234000243100F040F9288B07FA04F108432919D9
:10235000288381F81A80E3E7FFE73078292801D045
:102360000028B3D189F800400020BEE74C000020CF
:10237000024610B500200146054B05E05C18491CDB
:10238000A47EC9B22044C0B29142F7D310BD000070
:102390004C000020094800680169C943CA07084980
:1023A000D1F8F02004D14FF6FF731A44C1F8F020A1
:1023B000406A1044C1F8F00070470000900100200E
:1023C0004C00002000EBC00101EB00104FF0FF318A
:1023D00001EB800010B581B24FF47A70FFF7ECFA90
:1023E00001490120C87510BD4C00002002460120A3
:1023F00000E05043491EC9B2FBD2704707486FF056
:102400000101026811610268090CD162C1600068B3
:10241000002141620248C0F8F0107047900100208E
:102420004C0000202DE9F041164D2888010426D5E6
:102430001549C0B2154F00260E54B9681248884796
:1024400004000FD0104800F0D1F8012801D004009A
:1024500014D0012C09D0022C09D0032C09D0042C53
:102460000CD108E0F868804708E009A004E00BA060
:1024700002E00DA000E00FA0FDF7A4FF2E80BDE854
:10248000F081000046010020440200204C000020A2
:10249000BAAFCAFDB4EDCEF3210D0A00B2CECAFD2B
:1024A000B4EDCEF3210D0A00B2CECAFDCCABB6E03E
:1024B000210D0A00CEB4D5D2B5BDC6A5C5E4B5C4BC
:1024C000BAAFCAFD210D0A0010F8011F202901D161
:1024D0000028F9D1C8B270472DE9F0430D46002419
:1024E0004FF00A09264601462C600A78A2F1300313
:1024F000092B14D903782D2B01D02B2B00D174B1CB
:10250000A2F14103052B0AD9582A05D012F0FF0F7A
:1025100017D00120BDE8F083012C02D0F9E7412A51
:1025200001D34FF0100902782D2A04D02B2A04D0B1
:10253000641CE4B203E0022600E00126401C491CB2
:10254000D3E70746B9F1100F01D084B112E0032C94
:1025500001D20220DEE73878302802D17878582876
:1025600001D00320D6E7A41EE4B2BF1C01E0042082
:10257000D0E70CB1641EE4B23878A0F1300109292B
:1025800001D8884601E0A0F1370821464846FFF708
:102590002DFF2A6808FB0020286017F8011F00297A
:1025A000E7D1022E01D1404228600020B2E7027834
:1025B0000B789A4201D00120704712B1401C491C8F
:1025C000F5E70020704702780A700278002A02D0EE
:1025D000401C491CF7E77047002102781AB1491CDA
:1025E000C9B2401CF9E7084670470000F0B58DB04D
:1025F00004461E236A4602A9FFF781FD01900028C8
:1026000072D19DF80000271800263E4C8DF800601E
:102610009DF8000054F8201002A8FFF7C8FF38B159
:102620009DF80000401CC0B28DF800000728EFD3D1
:102630009DF800000425344C072855D2DFE800F04F
:102640000404395A605F5E0030A0FDF7BBFE30A085
:10265000FDF7B8FE3EA0FDF7B5FE4DA0FDF7B2FEBA
:102660005BA0FDF7AFFE6AA0FDF7ACFE78A0FDF71A
:10267000A9FE86A0FDF7A6FE8BA0FDF7A3FE93A002
:10268000FDF7A0FE97A0FDF79DFE9CA0FDF79AFE2A
:10269000A1A0FDF797FEA7A0FDF794FEB3A0FDF75C
:1026A00091FEC0A0FDF78EFECBA0FDF78BFED7A05C
:1026B0001BE016A0FDF786FEE4A0FDF783FE8DF873
:1026C00000600BE0216805EBC0000958EFA0FDF7A2
:1026D00079FE9DF80000401C8DF80000217D9DF8DA
:1026E00000008142EED856E257E2FDF76BFE002073
:1026F0000DB0F0BD05A0FDF765FECBE12CE20CE2CC
:10270000EBE10000100000204C0000200D0A00004A
:102710002D2D2D2D2D2D2D2D2D2D2D2D2D2D2D2DE9
:102720002D2D2D2D2D2D2D2D55534D4152542056EF
:10273000332E332D2D2D2D2D2D2D2D2D2D2D2D2DBC
:102740002D2D2D2D2D2D2D2D2D2D2D200D0A000063
:102750002020202055534D415254CAC7D3C9414C63
:1027600049454E54454BBFAAB7A2B5C4D2BBB8F633
:10277000C1E9C7C9B5C4B4AEBFDAB5F7CAD4BBA501
:10278000BDBBD7E9BCFE2CCDA8B9FD200D0A0000C9
:10279000CBFC2CC4E3BFC9D2D4CDA8B9FDB4AEBF25
:1027A000DAD6FACAD6B5F7D3C3B3CCD0F2C0EFC3EA
:1027B000E6B5C4C8CEBACEBAAFCAFD2CB2A2D6B462
:1027C000D0D02ED2F2B4CB2CC4E3BFC90D0A000086
:1027D000D2D4CBE6D2E2B8FCB8C4BAAFCAFDB5C415
:1027E000CAE4C8EBB2CECAFD28D6A7B3D6CAFDD775
:1027F000D62831302F3136BDF8D6C62CD6A7B3D661
:10280000B8BACAFD29A1A2D7D6B7FBB4AE0D0A004B
:10281000A1A2BAAFCAFDC8EBBFDAB5D8D6B7B5C862
:10282000D7F7CEAAB2CECAFD292CB5A5B8F6BAAF55
:10283000CAFDD7EEB6E0D6A7B3D63130B8F6CAE4B3
:10284000C8EBB2CECAFD2CB2A2D6A7B3D60D0A00F1
:10285000BAAFCAFDB7B5BBD8D6B5CFD4CABE2ED68F
:10286000A7B3D6B2CECAFDCFD4CABEBDF8D6C6C9AC
:10287000E8D6C3B9A6C4DC2CD6A7B3D6BDF8D6C655
:10288000D7AABBBBB9A6C4DC2E0D0A00BCBCCAF5D6
:10289000D6A7B3D63A7777772E6F70656E65647674
:1028A0002E636F6D0D0A000055534D415254D3D025
:1028B00037B8F6CFB5CDB3C3FCC1EE28B1D8D0EB55
:1028C000D0A1D0B4293A0D0A000000003F3A2020E0
:1028D00020202020BBF1C8A1B0EFD6FAD0C5CFA2EE
:1028E0000D0A000068656C703A202020BBF1C8A179
:1028F000B0EFD6FAD0C5CFA20D0A00006C69737490
:102900003A202020BFC9D3C3B5C4BAAFCAFDC1D0D5
:10291000B1ED0D0A0A00000069643A202020202051
:10292000BFC9D3C3BAAFCAFDB5C44944C1D0B1ED24
:102930000D0A0A006865783A20202020B2CECAFD30
:102940003136BDF8D6C6CFD4CABE2CBAF3B8FABF5A
:10295000D5B8F12BCAFDD7D6BCB4D6B4D0D0BDF80B
:10296000D6C6D7AABBBB0D0A0A0000006465633A4D
:1029700020202020B2CECAFD3130BDF8D6C6CFD43B
:10298000CABE2CBAF3B8FABFD5B8F12BCAFDD7D658
:10299000BCB4D6B4D0D0BDF8D6C6D7AABBBB0D0A3E
:1029A0000A00000072756E74696D653A312CBFAA19
:1029B000C6F4BAAFCAFDD4CBD0D0BCC6CAB13B3086
:1029C0002CB9D8B1D5BAAFCAFDD4CBD0D0BCC6CA09
:1029D000B13B0D0A0A000000C7EBB0B4D5D5B3CCAB
:1029E000D0F2B1E0D0B4B8F1CABDCAE4C8EBBAAF16
:1029F000CAFDC3FBBCB0B2CECAFDB2A2D2D4BBD812
:102A0000B3B5BCFCBDE1CAF82E0D0A002D2D2D2D4D
:102A10002D2D2D2D2D2D2D2D2D2D2D2D2D2D2D2DE6
:102A20002D2D2D2D2D2D414C49454E54454B2D2DF1
:102A30002D2D2D2D2D2D2D2D2D2D2D2D2D2D2D2DC6
:102A40002D2D2D2D2D2D2D200D0A00002D2D2D2D60
:102A50002D2D2D2D2D2D2D2D2D2D2D2D2D2D2D2DA6
:102A60002D2D2D2D2DBAAFCAFDC7E5B5A52D2D2DC8
:102A70002D2D2D2D2D2D2D2D2D2D2D2D2D2D2D2D86
:102A80002D2D2D2D2D2D2D2D200D0A0025730D0AF8
:102A90000000000042A0FDF795FC8DF8006016E0F4
:102AA000216805EBC0000BAB08580AAA02A9FFF782
:102AB0003DFB9DF80010206850F8312002A948A085
:102AC000FDF780FC9DF80000401C8DF80000217D82
:102AD0009DF800008142E3D85DE0AFF2D030FDF711
:102AE00071FC6A4602A93846FFF7B6FA9DF8000065
:102AF000002843D101A902A8FFF7EEFC8DF80000E1
:102B000010B104283AD102E03AA001991CE03CA09F
:102B1000FDF758FC0120E0753DE038A0FDF752FCC0
:102B20006A4602A93846FFF797FA9DF8000028BBCD
:102B300001A902A8FFF7D0FC8DF8000010B104280D
:102B40001CD104E033A00199FDF73CFC23E034A044
:102B5000FDF738FCE6751EE028A0FDF733FC6A4659
:102B600002A93846FFF778FA9DF8000030B901A9AC
:102B700002A8FFF7B1FC8DF8000008B10220B7E50C
:102B8000019810F0FF0084F8EC0001D029A000E0CB
:102B90002FA0FDF717FC19A0A7E50120A8E500006C
:102BA0002D2D2D2D2D2D2D2D2D2D2D2D2D2D2D2D55
:102BB0002D2D2D2D2D2D2D2D2DBAAFCAFD204944A3
:102BC000202D2D2D2D2D2D2D2D2D2D2D2D2D2D2D42
:102BD0002D2D2D2D2D2D2D2D2D2D2D2D200D0A00A2
:102BE00025732069642069733A0D0A3058253038FE
:102BF000580D0A004845583A305825580D0A00002B
:102C00003136BDF8D6C6B2CECAFDCFD4CABE210D6C
:102C10000A0000004445433A256C750D0A00000087
:102C20003130BDF8D6C6B2CECAFDCFD4CABE210D52
:102C30000A00000052756E2054696D652043616C76
:102C400063756C6174696F6E204F4E0D0A00000051
:102C500052756E2054696D652043616C63756C61BB
:102C600074696F6E204F46460D0A00000160704780
:102C70004FF04070E1EE100A7047000000000000C5
:102C80000000010203040607080900000000010219
:102C90000304303132333435363738394142434416
:102CA00045464030580030313233343536373839C4
:102CB00061626364656640307800040000080000CB
:102CC0000000000000020001000010003F000000B2
:102CD000646563006964000072756E74696D6500F7
:102CE00068656C70000000006C697374000000007F
:102CF00068657800766F69642077726974655F61D2
:102D00006464722875333220616464722C753332C6
:102D10002076616C29000000753332207265616491
:102D20005F616464722875333220616464722900C3
:102D3000766F69642064656C61795F6D73287531A5
:102D400036206E6D73290000766F69642064656CAF
:102D500061795F757328753332206E7573290000B1
:102D6000802D0008000000204C010000D001000868
:102D7000D02D00084C010020640800002C0200083F
:102D8000320182101324F413CC2C1B08E0041AE83F
:102D9000041AD4041AF0041AD0041AD804135D1DBE
:102DA0001408182D1B086D0C1AF40413CF1C1B08F3
:102DB00030101AE9081A4808222C1420C5231B08D1
:102DC00061281AF504132524230804296301E5006A
:040000050800019559
:00000001FF
